{
  "address": "0x309bBBB5b773640a0Ee9972fD0B805b9D9dbC627",
  "abi": [
    {
      "inputs": [
        {
          "internalType": "address",
          "name": "_owner",
          "type": "address"
        },
        {
          "internalType": "address",
          "name": "implementationAuthority",
          "type": "address"
        },
        {
          "internalType": "bool",
          "name": "isHomeChain",
          "type": "bool"
        }
      ],
      "stateMutability": "nonpayable",
      "type": "constructor"
    },
    {
      "anonymous": false,
      "inputs": [
        {
          "indexed": true,
          "internalType": "address",
          "name": "user",
          "type": "address"
        },
        {
          "indexed": true,
          "internalType": "uint256",
          "name": "topic",
          "type": "uint256"
        },
        {
          "indexed": false,
          "internalType": "uint256",
          "name": "scheme",
          "type": "uint256"
        },
        {
          "indexed": true,
          "internalType": "address",
          "name": "issuer",
          "type": "address"
        },
        {
          "indexed": false,
          "internalType": "bytes",
          "name": "signature",
          "type": "bytes"
        },
        {
          "indexed": false,
          "internalType": "bytes",
          "name": "data",
          "type": "bytes"
        },
        {
          "indexed": false,
          "internalType": "string",
          "name": "uri",
          "type": "string"
        }
      ],
      "name": "AddedClaim",
      "type": "event"
    },
    {
      "anonymous": false,
      "inputs": [
        {
          "indexed": false,
          "internalType": "address",
          "name": "user",
          "type": "address"
        },
        {
          "indexed": true,
          "internalType": "bytes32",
          "name": "key",
          "type": "bytes32"
        },
        {
          "indexed": true,
          "internalType": "uint256",
          "name": "purpose",
          "type": "uint256"
        },
        {
          "indexed": true,
          "internalType": "uint256",
          "name": "keyType",
          "type": "uint256"
        }
      ],
      "name": "AddedKey",
      "type": "event"
    },
    {
      "anonymous": false,
      "inputs": [
        {
          "indexed": true,
          "internalType": "address",
          "name": "_address",
          "type": "address"
        },
        {
          "indexed": true,
          "internalType": "uint64",
          "name": "_type",
          "type": "uint64"
        },
        {
          "indexed": true,
          "internalType": "bool",
          "name": "_status",
          "type": "bool"
        }
      ],
      "name": "AllowedAddress",
      "type": "event"
    },
    {
      "anonymous": false,
      "inputs": [
        {
          "indexed": false,
          "internalType": "uint64",
          "name": "chainSelector",
          "type": "uint64"
        },
        {
          "indexed": false,
          "internalType": "address",
          "name": "receiver",
          "type": "address"
        },
        {
          "indexed": false,
          "internalType": "address",
          "name": "gateway",
          "type": "address"
        }
      ],
      "name": "CCIPReceiverAdded",
      "type": "event"
    },
    {
      "anonymous": false,
      "inputs": [
        {
          "indexed": false,
          "internalType": "uint64",
          "name": "chainSelector",
          "type": "uint64"
        }
      ],
      "name": "CCIPReceiverRemoved",
      "type": "event"
    },
    {
      "anonymous": false,
      "inputs": [
        {
          "indexed": true,
          "internalType": "address",
          "name": "_addr",
          "type": "address"
        }
      ],
      "name": "Deployed",
      "type": "event"
    },
    {
      "anonymous": false,
      "inputs": [
        {
          "indexed": false,
          "internalType": "uint32",
          "name": "_dstEid",
          "type": "uint32"
        }
      ],
      "name": "LzReceiverAdded",
      "type": "event"
    },
    {
      "anonymous": false,
      "inputs": [
        {
          "indexed": false,
          "internalType": "uint32",
          "name": "_dstEid",
          "type": "uint32"
        }
      ],
      "name": "LzReceiverRemoved",
      "type": "event"
    },
    {
      "anonymous": false,
      "inputs": [
        {
          "indexed": true,
          "internalType": "address",
          "name": "previousOwner",
          "type": "address"
        },
        {
          "indexed": true,
          "internalType": "address",
          "name": "newOwner",
          "type": "address"
        }
      ],
      "name": "OwnershipTransferred",
      "type": "event"
    },
    {
      "anonymous": false,
      "inputs": [
        {
          "indexed": false,
          "internalType": "address",
          "name": "user",
          "type": "address"
        },
        {
          "indexed": true,
          "internalType": "bytes32",
          "name": "claimId",
          "type": "bytes32"
        },
        {
          "indexed": true,
          "internalType": "uint256",
          "name": "topic",
          "type": "uint256"
        },
        {
          "indexed": false,
          "internalType": "uint256",
          "name": "scheme",
          "type": "uint256"
        },
        {
          "indexed": true,
          "internalType": "address",
          "name": "issuer",
          "type": "address"
        },
        {
          "indexed": false,
          "internalType": "bytes",
          "name": "signature",
          "type": "bytes"
        },
        {
          "indexed": false,
          "internalType": "bytes",
          "name": "data",
          "type": "bytes"
        },
        {
          "indexed": false,
          "internalType": "string",
          "name": "uri",
          "type": "string"
        }
      ],
      "name": "RemovedClaim",
      "type": "event"
    },
    {
      "anonymous": false,
      "inputs": [
        {
          "indexed": false,
          "internalType": "address",
          "name": "user",
          "type": "address"
        },
        {
          "indexed": true,
          "internalType": "bytes32",
          "name": "key",
          "type": "bytes32"
        },
        {
          "indexed": true,
          "internalType": "uint256",
          "name": "purpose",
          "type": "uint256"
        },
        {
          "indexed": true,
          "internalType": "uint256",
          "name": "keyType",
          "type": "uint256"
        }
      ],
      "name": "RemovedKey",
      "type": "event"
    },
    {
      "anonymous": false,
      "inputs": [
        {
          "indexed": true,
          "internalType": "address",
          "name": "factory",
          "type": "address"
        }
      ],
      "name": "TokenFactoryAdded",
      "type": "event"
    },
    {
      "anonymous": false,
      "inputs": [
        {
          "indexed": true,
          "internalType": "address",
          "name": "factory",
          "type": "address"
        }
      ],
      "name": "TokenFactoryRemoved",
      "type": "event"
    },
    {
      "anonymous": false,
      "inputs": [
        {
          "indexed": true,
          "internalType": "address",
          "name": "token",
          "type": "address"
        },
        {
          "indexed": true,
          "internalType": "address",
          "name": "identity",
          "type": "address"
        }
      ],
      "name": "TokenLinked",
      "type": "event"
    },
    {
      "anonymous": false,
      "inputs": [
        {
          "indexed": true,
          "internalType": "address",
          "name": "wallet",
          "type": "address"
        },
        {
          "indexed": true,
          "internalType": "address",
          "name": "identity",
          "type": "address"
        }
      ],
      "name": "WalletLinked",
      "type": "event"
    },
    {
      "anonymous": false,
      "inputs": [
        {
          "indexed": true,
          "internalType": "address",
          "name": "wallet",
          "type": "address"
        },
        {
          "indexed": true,
          "internalType": "address",
          "name": "identity",
          "type": "address"
        }
      ],
      "name": "WalletUnlinked",
      "type": "event"
    },
    {
      "inputs": [],
      "name": "_isHomeChain",
      "outputs": [
        {
          "internalType": "bool",
          "name": "",
          "type": "bool"
        }
      ],
      "stateMutability": "view",
      "type": "function"
    },
    {
      "inputs": [
        {
          "internalType": "uint64",
          "name": "_chainSelector",
          "type": "uint64"
        },
        {
          "internalType": "address",
          "name": "_receiver",
          "type": "address"
        },
        {
          "internalType": "address",
          "name": "_gateway",
          "type": "address"
        }
      ],
      "name": "addCCIPReceiver",
      "outputs": [],
      "stateMutability": "nonpayable",
      "type": "function"
    },
    {
      "inputs": [
        {
          "internalType": "uint32",
          "name": "_dstEid",
          "type": "uint32"
        }
      ],
      "name": "addLzReceiver",
      "outputs": [],
      "stateMutability": "nonpayable",
      "type": "function"
    },
    {
      "inputs": [
        {
          "internalType": "address",
          "name": "_factory",
          "type": "address"
        }
      ],
      "name": "addTokenFactory",
      "outputs": [],
      "stateMutability": "nonpayable",
      "type": "function"
    },
    {
      "inputs": [
        {
          "internalType": "bool",
          "name": "isTrue",
          "type": "bool"
        },
        {
          "internalType": "uint256",
          "name": "_topic",
          "type": "uint256"
        },
        {
          "internalType": "uint256",
          "name": "_scheme",
          "type": "uint256"
        },
        {
          "internalType": "address",
          "name": "_issuer",
          "type": "address"
        },
        {
          "internalType": "bytes",
          "name": "_signature",
          "type": "bytes"
        },
        {
          "internalType": "bytes",
          "name": "_data",
          "type": "bytes"
        },
        {
          "internalType": "string",
          "name": "_uri",
          "type": "string"
        }
      ],
      "name": "addedClaim",
      "outputs": [],
      "stateMutability": "nonpayable",
      "type": "function"
    },
    {
      "inputs": [
        {
          "internalType": "bool",
          "name": "isTrue",
          "type": "bool"
        },
        {
          "internalType": "bytes32",
          "name": "_key",
          "type": "bytes32"
        },
        {
          "internalType": "uint256",
          "name": "_purpose",
          "type": "uint256"
        },
        {
          "internalType": "uint256",
          "name": "_type",
          "type": "uint256"
        }
      ],
      "name": "addedKey",
      "outputs": [],
      "stateMutability": "nonpayable",
      "type": "function"
    },
    {
      "inputs": [],
      "name": "ccipBridge",
      "outputs": [
        {
          "internalType": "address",
          "name": "",
          "type": "address"
        }
      ],
      "stateMutability": "view",
      "type": "function"
    },
    {
      "inputs": [
        {
          "internalType": "address",
          "name": "_wallet",
          "type": "address"
        },
        {
          "internalType": "bytes32",
          "name": "_solanaWallet",
          "type": "bytes32"
        },
        {
          "internalType": "string",
          "name": "_salt",
          "type": "string"
        }
      ],
      "name": "createIdentity",
      "outputs": [
        {
          "internalType": "address",
          "name": "identity",
          "type": "address"
        }
      ],
      "stateMutability": "nonpayable",
      "type": "function"
    },
    {
      "inputs": [
        {
          "internalType": "address",
          "name": "_wallet",
          "type": "address"
        },
        {
          "internalType": "bytes32",
          "name": "_solanaWallet",
          "type": "bytes32"
        },
        {
          "internalType": "string",
          "name": "_salt",
          "type": "string"
        },
        {
          "internalType": "bytes32[]",
          "name": "_managementKeys",
          "type": "bytes32[]"
        }
      ],
      "name": "createIdentityWithManagementKeys",
      "outputs": [
        {
          "internalType": "address",
          "name": "",
          "type": "address"
        }
      ],
      "stateMutability": "nonpayable",
      "type": "function"
    },
    {
      "inputs": [
        {
          "internalType": "address",
          "name": "_token",
          "type": "address"
        },
        {
          "internalType": "address",
          "name": "_tokenOwner",
          "type": "address"
        },
        {
          "internalType": "string",
          "name": "_salt",
          "type": "string"
        }
      ],
      "name": "createTokenIdentity",
      "outputs": [
        {
          "internalType": "address",
          "name": "",
          "type": "address"
        }
      ],
      "stateMutability": "nonpayable",
      "type": "function"
    },
    {
      "inputs": [
        {
          "internalType": "uint64",
          "name": "",
          "type": "uint64"
        }
      ],
      "name": "destinationChainSelectorToGateway",
      "outputs": [
        {
          "internalType": "address",
          "name": "",
          "type": "address"
        }
      ],
      "stateMutability": "view",
      "type": "function"
    },
    {
      "inputs": [
        {
          "internalType": "uint64",
          "name": "",
          "type": "uint64"
        }
      ],
      "name": "destinationChainSelectorToReceiver",
      "outputs": [
        {
          "internalType": "address",
          "name": "",
          "type": "address"
        }
      ],
      "stateMutability": "view",
      "type": "function"
    },
    {
      "inputs": [],
      "name": "getCCIPBridge",
      "outputs": [
        {
          "internalType": "address",
          "name": "",
          "type": "address"
        }
      ],
      "stateMutability": "view",
      "type": "function"
    },
    {
      "inputs": [],
      "name": "getChainSelectors",
      "outputs": [
        {
          "internalType": "uint64[]",
          "name": "",
          "type": "uint64[]"
        }
      ],
      "stateMutability": "view",
      "type": "function"
    },
    {
      "inputs": [],
      "name": "getDstEid",
      "outputs": [
        {
          "internalType": "uint32[]",
          "name": "",
          "type": "uint32[]"
        }
      ],
      "stateMutability": "view",
      "type": "function"
    },
    {
      "inputs": [
        {
          "internalType": "uint64",
          "name": "_chainSelector",
          "type": "uint64"
        }
      ],
      "name": "getGateway",
      "outputs": [
        {
          "internalType": "address",
          "name": "",
          "type": "address"
        }
      ],
      "stateMutability": "view",
      "type": "function"
    },
    {
      "inputs": [
        {
          "internalType": "address",
          "name": "_wallet",
          "type": "address"
        }
      ],
      "name": "getIdentity",
      "outputs": [
        {
          "internalType": "address",
          "name": "",
          "type": "address"
        }
      ],
      "stateMutability": "view",
      "type": "function"
    },
    {
      "inputs": [],
      "name": "getLzBridge",
      "outputs": [
        {
          "internalType": "address",
          "name": "",
          "type": "address"
        }
      ],
      "stateMutability": "view",
      "type": "function"
    },
    {
      "inputs": [
        {
          "internalType": "uint64",
          "name": "_chainSelector",
          "type": "uint64"
        }
      ],
      "name": "getReceiver",
      "outputs": [
        {
          "internalType": "address",
          "name": "",
          "type": "address"
        }
      ],
      "stateMutability": "view",
      "type": "function"
    },
    {
      "inputs": [],
      "name": "getReceivers",
      "outputs": [
        {
          "internalType": "address[]",
          "name": "",
          "type": "address[]"
        }
      ],
      "stateMutability": "view",
      "type": "function"
    },
    {
      "inputs": [
        {
          "internalType": "address",
          "name": "_identity",
          "type": "address"
        }
      ],
      "name": "getToken",
      "outputs": [
        {
          "internalType": "address",
          "name": "",
          "type": "address"
        }
      ],
      "stateMutability": "view",
      "type": "function"
    },
    {
      "inputs": [
        {
          "internalType": "address",
          "name": "_identity",
          "type": "address"
        }
      ],
      "name": "getWallets",
      "outputs": [
        {
          "internalType": "address[]",
          "name": "",
          "type": "address[]"
        }
      ],
      "stateMutability": "view",
      "type": "function"
    },
    {
      "inputs": [
        {
          "internalType": "address",
          "name": "account",
          "type": "address"
        },
        {
          "internalType": "address",
          "name": "caller",
          "type": "address"
        },
        {
          "internalType": "bytes",
          "name": "data",
          "type": "bytes"
        }
      ],
      "name": "hasAccess",
      "outputs": [
        {
          "internalType": "bool",
          "name": "",
          "type": "bool"
        }
      ],
      "stateMutability": "view",
      "type": "function"
    },
    {
      "inputs": [
        {
          "internalType": "address",
          "name": "_identity",
          "type": "address"
        }
      ],
      "name": "identityIsCreated",
      "outputs": [
        {
          "internalType": "bool",
          "name": "",
          "type": "bool"
        }
      ],
      "stateMutability": "view",
      "type": "function"
    },
    {
      "inputs": [],
      "name": "implementationAuthority",
      "outputs": [
        {
          "internalType": "address",
          "name": "",
          "type": "address"
        }
      ],
      "stateMutability": "view",
      "type": "function"
    },
    {
      "inputs": [
        {
          "internalType": "address",
          "name": "",
          "type": "address"
        }
      ],
      "name": "isAllowedContract",
      "outputs": [
        {
          "internalType": "bool",
          "name": "",
          "type": "bool"
        }
      ],
      "stateMutability": "view",
      "type": "function"
    },
    {
      "inputs": [
        {
          "internalType": "address",
          "name": "",
          "type": "address"
        }
      ],
      "name": "isCreatedIdentity",
      "outputs": [
        {
          "internalType": "bool",
          "name": "",
          "type": "bool"
        }
      ],
      "stateMutability": "view",
      "type": "function"
    },
    {
      "inputs": [
        {
          "internalType": "address",
          "name": "",
          "type": "address"
        }
      ],
      "name": "isManager",
      "outputs": [
        {
          "internalType": "bool",
          "name": "",
          "type": "bool"
        }
      ],
      "stateMutability": "view",
      "type": "function"
    },
    {
      "inputs": [
        {
          "internalType": "string",
          "name": "_salt",
          "type": "string"
        }
      ],
      "name": "isSaltTaken",
      "outputs": [
        {
          "internalType": "bool",
          "name": "",
          "type": "bool"
        }
      ],
      "stateMutability": "view",
      "type": "function"
    },
    {
      "inputs": [
        {
          "internalType": "address",
          "name": "_factory",
          "type": "address"
        }
      ],
      "name": "isTokenFactory",
      "outputs": [
        {
          "internalType": "bool",
          "name": "",
          "type": "bool"
        }
      ],
      "stateMutability": "view",
      "type": "function"
    },
    {
      "inputs": [
        {
          "internalType": "address",
          "name": "_newWallet",
          "type": "address"
        }
      ],
      "name": "linkWallet",
      "outputs": [],
      "stateMutability": "nonpayable",
      "type": "function"
    },
    {
      "inputs": [],
      "name": "lzBridge",
      "outputs": [
        {
          "internalType": "address",
          "name": "",
          "type": "address"
        }
      ],
      "stateMutability": "view",
      "type": "function"
    },
    {
      "inputs": [],
      "name": "owner",
      "outputs": [
        {
          "internalType": "address",
          "name": "",
          "type": "address"
        }
      ],
      "stateMutability": "view",
      "type": "function"
    },
    {
      "inputs": [
        {
          "internalType": "uint64",
          "name": "_chainSelector",
          "type": "uint64"
        }
      ],
      "name": "removeCCIPReceiver",
      "outputs": [],
      "stateMutability": "nonpayable",
      "type": "function"
    },
    {
      "inputs": [
        {
          "internalType": "uint32",
          "name": "_dstEid",
          "type": "uint32"
        }
      ],
      "name": "removeLzReceiver",
      "outputs": [],
      "stateMutability": "nonpayable",
      "type": "function"
    },
    {
      "inputs": [
        {
          "internalType": "address",
          "name": "_factory",
          "type": "address"
        }
      ],
      "name": "removeTokenFactory",
      "outputs": [],
      "stateMutability": "nonpayable",
      "type": "function"
    },
    {
      "inputs": [
        {
          "internalType": "bool",
          "name": "isTrue",
          "type": "bool"
        },
        {
          "internalType": "bytes32",
          "name": "_claimId",
          "type": "bytes32"
        },
        {
          "internalType": "uint256",
          "name": "_topic",
          "type": "uint256"
        },
        {
          "internalType": "uint256",
          "name": "_scheme",
          "type": "uint256"
        },
        {
          "internalType": "address",
          "name": "_issuer",
          "type": "address"
        },
        {
          "internalType": "bytes",
          "name": "_signature",
          "type": "bytes"
        },
        {
          "internalType": "bytes",
          "name": "_data",
          "type": "bytes"
        },
        {
          "internalType": "string",
          "name": "_uri",
          "type": "string"
        }
      ],
      "name": "removedClaim",
      "outputs": [],
      "stateMutability": "nonpayable",
      "type": "function"
    },
    {
      "inputs": [
        {
          "internalType": "bool",
          "name": "isTrue",
          "type": "bool"
        },
        {
          "internalType": "bytes32",
          "name": "_key",
          "type": "bytes32"
        },
        {
          "internalType": "uint256",
          "name": "_purpose",
          "type": "uint256"
        },
        {
          "internalType": "uint256",
          "name": "_type",
          "type": "uint256"
        }
      ],
      "name": "removedKey",
      "outputs": [],
      "stateMutability": "nonpayable",
      "type": "function"
    },
    {
      "inputs": [],
      "name": "renounceOwnership",
      "outputs": [],
      "stateMutability": "nonpayable",
      "type": "function"
    },
    {
      "inputs": [
        {
          "internalType": "address",
          "name": "_contract",
          "type": "address"
        },
        {
          "internalType": "bool",
          "name": "_status",
          "type": "bool"
        }
      ],
      "name": "setAllowedContract",
      "outputs": [],
      "stateMutability": "nonpayable",
      "type": "function"
    },
    {
      "inputs": [
        {
          "internalType": "address",
          "name": "_bridge",
          "type": "address"
        }
      ],
      "name": "setCCIPBridge",
      "outputs": [],
      "stateMutability": "nonpayable",
      "type": "function"
    },
    {
      "inputs": [
        {
          "internalType": "address",
          "name": "_lzBridge",
          "type": "address"
        }
      ],
      "name": "setLzBridge",
      "outputs": [],
      "stateMutability": "nonpayable",
      "type": "function"
    },
    {
      "inputs": [
        {
          "internalType": "address",
          "name": "_manager",
          "type": "address"
        },
        {
          "internalType": "bool",
          "name": "_status",
          "type": "bool"
        }
      ],
      "name": "setManager",
      "outputs": [],
      "stateMutability": "nonpayable",
      "type": "function"
    },
    {
      "inputs": [
        {
          "internalType": "address",
          "name": "newOwner",
          "type": "address"
        }
      ],
      "name": "transferOwnership",
      "outputs": [],
      "stateMutability": "nonpayable",
      "type": "function"
    },
    {
      "inputs": [
        {
          "internalType": "address",
          "name": "_oldWallet",
          "type": "address"
        }
      ],
      "name": "unlinkWallet",
      "outputs": [],
      "stateMutability": "nonpayable",
      "type": "function"
    }
  ],
  "transactionHash": "0x5a6efde6e2adffb8902f7de97617a7274faafc8928ba344856ac3cf2689c4556",
  "args": [
    "0x820F4c6eeF2DbACD463037571ccBDB761fd08AA1",
    "0x6C1212E804A418dC570c5723cFaE56E9B4378cbd",
    true
  ],
  "numDeployments": 1,
  "solcInputHash": "1f1a94bcaf2f58d73ea6c0367be71535",
  "bytecode": "0x60a0346200012b57601f62004ad138819003918201601f19168301916001600160401b0383118484101762000130578084926060946040528339810103126200012b576200004d8162000146565b60406200005d6020840162000146565b920151908115158092036200012b57620000d4916200007c33620001a8565b6001600160a01b036200009385821615156200015b565b821693620000a38515156200015b565b60805260ff199060ff82600854169116176008558360005260106020526001604060002091825416179055620001a8565b600180604051927f77b360cfa209016bdd91c2800cd667bb8ad1b916258568b44a73da1cfe9a44cc600080a46148e19081620001f0823960805181818161067301528181610b1501528181611d0b0152612ca60152f35b600080fd5b634e487b7160e01b600052604160045260246000fd5b51906001600160a01b03821682036200012b57565b156200016357565b60405162461bcd60e51b815260206004820152601f60248201527f696e76616c696420617267756d656e74202d207a65726f2061646472657373006044820152606490fd5b600080546001600160a01b039283166001600160a01b03198216811783559216907f8be0079c531659141344cd1fd0a4f28419497f9722a3daafe3b4186f6b6457e09080a356fe608060405260043610156200001357600080fd5b60003560e01c806228f7ff1462000322578063011e9dd6146200031c578063213c9c7a14620002685780632307f88214620003165780632c8aa6de14620003105780632fea7b81146200030a57806334e5ca7914620002bc578063390adf3914620003045780633a50045114620002fe5780633d56ff6614620002f85780633e3bc3d714620002f2578063422c29a414620002ec57806343e2cb6214620002e65780634a2a333214620002745780635027dbe214620002e0578063532f946514620002da57806355de1faf14620002d45780635977043814620002ce57806359f2753014620002c85780635cdfd64214620002c25780635faf9e3e14620002bc578063608520a6146200028c578063715018a614620002b65780637b6b91c714620002b05780638da5cb5b14620002aa5780638e70db7c14620002a457806391145187146200029e578063937529ef14620002985780639b9913ff14620002925780639bf03a53146200028c5780639ce1936514620002865780639d7c87b81462000256578063a262d8d21462000280578063a5e90eee146200027a578063ab12c35f1462000274578063b8bb8126146200026e578063b97fef861462000268578063c27d57d31462000262578063e061646b146200025c578063edff31f31462000256578063eefb7e9a1462000250578063f2fde38b146200024a578063f3ae24151462000244578063f43b8555146200023e5763fe5e2e1b146200023857600080fd5b620026ba565b62002677565b62002634565b62002548565b6200248b565b62001f64565b620023be565b6200235e565b62000602565b620021d7565b62000e9e565b62002132565b62001fd6565b62001e81565b62001696565b62001c1b565b62001b2d565b62001998565b6200190f565b620018e6565b62001774565b620016bf565b620006f6565b620015fa565b620013a6565b62001324565b620011e4565b62001147565b62000ee6565b62000d59565b62000ca7565b62000c1e565b62000977565b6200091b565b62000806565b620006bc565b62000697565b62000651565b62000418565b620003a0565b600435906001600160a01b03821682036200033f57565b600080fd5b602435906001600160a01b03821682036200033f57565b606435906001600160a01b03821682036200033f57565b608435906001600160a01b03821682036200033f57565b604435906001600160a01b03821682036200033f57565b346200033f5760206003193601126200033f576001600160a01b03620003c562000328565b620003cf6200278c565b16620003dd811515620027e5565b73ffffffffffffffffffffffffffffffffffffffff19600e541617600e55600080f35b6004359067ffffffffffffffff821682036200033f57565b346200033f5760206003193601126200033f576200043562000400565b6200043f6200278c565b620004846001600160a01b036200047b6200046e8467ffffffffffffffff166000526009602052604060002090565b546001600160a01b031690565b161515620035eb565b620004c4620004a78267ffffffffffffffff166000526009602052604060002090565b73ffffffffffffffffffffffffffffffffffffffff198154169055565b620004e7620004a78267ffffffffffffffff16600052600a602052604060002090565b600b5467ffffffffffffffff82811660005b8381106200053f575b60405167ffffffffffffffff861681527fb9cc511015749dca045e7b4c248764deac71a148211f7cbc81bb64a023810cfb9080602081015b0390a1005b81836200056462000550846200357e565b905467ffffffffffffffff9160031b1c1690565b16146200057c576200057690620030c5565b620004f9565b7fb9cc511015749dca045e7b4c248764deac71a148211f7cbc81bb64a023810cfb949250620005ef9150620005ce620005c762000550620005c16200053a97620034d6565b6200357e565b916200357e565b90919082549060031b9167ffffffffffffffff809116831b921b1916179055565b620005f962003637565b91388062000502565b346200033f5760206003193601126200033f576001600160a01b036200062762000328565b166000526011602052602060ff604060002054166040519015158152f35b60009103126200033f57565b346200033f5760006003193601126200033f5760206040516001600160a01b037f0000000000000000000000000000000000000000000000000000000000000000168152f35b346200033f5760006003193601126200033f57602060ff600854166040519015158152f35b346200033f5760206003193601126200033f576020620006e5620006df62000328565b62003777565b6001600160a01b0360405191168152f35b346200033f5760006003193601126200033f5760206001600160a01b03600d5416604051908152f35b634e487b7160e01b600052604160045260246000fd5b67ffffffffffffffff81116200074a57604052565b6200071f565b6040810190811067ffffffffffffffff8211176200074a57604052565b90601f601f19910116810190811067ffffffffffffffff8211176200074a57604052565b81601f820112156200033f5780359067ffffffffffffffff82116200074a5760405192620007ca6020601f19601f86011601856200076d565b828452602083830101116200033f57816000926020809301838601378301015290565b67ffffffffffffffff81116200074a5760051b60200190565b346200033f5760806003193601126200033f576200082362000328565b67ffffffffffffffff906044358281116200033f576200084890369060040162000791565b906064359283116200033f57366023840112156200033f5782600401356200087081620007ed565b936200088060405195866200076d565b81855260209160248387019160051b830101913683116200033f57602401905b828210620008da57620008d6620008bc88886024358962002b78565b6040516001600160a01b0390911681529081906020820190565b0390f35b81358152908301908301620008a0565b9181601f840112156200033f5782359167ffffffffffffffff83116200033f57602083818601950101116200033f57565b346200033f5760206003193601126200033f5760043567ffffffffffffffff81116200033f5760ff60206200095681933690600401620008ea565b91908260405193849283378101600281520301902054166040519015158152f35b346200033f5760606003193601126200033f576200099462000328565b6200099e62000344565b9060443567ffffffffffffffff81116200033f57620009c6620008d691369060040162000791565b92620009f0620009e9336001600160a01b03166000526001602052604060002090565b5460ff1690565b801562000bf8575b62000a039062003186565b62000bb86001600160a01b039362000b4f62000b4262000b3b62000ab48885169962000a318b1515620027e5565b62000a408a89161515620027e5565b62000aae604051602081018162000a588583620028ee565b039162000a6e601f19938481018352826200076d565b5190209060405162000aa360208201928262000a968560409060208152600060208201520190565b039081018352826200076d565b519020141562002904565b620031d2565b9562000ad662000ad062000acc620009e98a62002950565b1590565b62002978565b62000b1362000b0c62000b006200046e886001600160a01b03166000526006602052604060002090565b6001600160a01b031690565b156200322a565b7f000000000000000000000000000000000000000000000000000000000000000087620037bb565b9462002950565b600160ff19825416179055565b62000b9a8362000b72836001600160a01b03166000526006602052604060002090565b906001600160a01b031673ffffffffffffffffffffffffffffffffffffffff19825416179055565b62000b72836001600160a01b03166000526007602052604060002090565b6040519384938216907fa8261d398ddc63db24cc53cd0c63c9464cabad1bc478ede2107b32c1c4010b7a600080a36001600160a01b031682526020820190565b5062000a0362000c1462000b006000546001600160a01b031690565b33149050620009f8565b346200033f5760206003193601126200033f576001600160a01b0362000c4362000328565b166000526001602052602060ff604060002054166040519015158152f35b6020908160408183019282815285518094520193019160005b82811062000c89575050505090565b83516001600160a01b03168552938101939281019260010162000c7a565b346200033f576020806003193601126200033f576001600160a01b038062000cce62000328565b1660005260058252604060002091604051809282855492838152019460005282600020926000915b83831062000d1e57620008d68662000d11818a03826200076d565b6040519182918262000c61565b845481168752958101956001948501949092019162000cf6565b60031960209101126200033f5760043563ffffffff811681036200033f5790565b346200033f5762000d6a3662000d38565b62000d746200278c565b63ffffffff8082169062000d8a82151562003669565b600c549160005b83811062000dd3575b60405163ffffffff861681527fc79a1499565cfdf027b967beda8eb39e6b0e27402eaa75c46e2d0c17541d765d9080602081016200053a565b8162000df58462000de484620036db565b90549060031b1c1663ffffffff1690565b1462000e0c5762000e0690620030c5565b62000d91565b7fc79a1499565cfdf027b967beda8eb39e6b0e27402eaa75c46e2d0c17541d765d94925062000e8b915062000e6e62000e6762000e5762000e516200053a97620034d6565b620036db565b905463ffffffff9160031b1c1690565b91620036db565b90919082549060031b9163ffffffff809116831b921b1916179055565b62000e956200371c565b91388062000d9a565b346200033f5760206003193601126200033f5767ffffffffffffffff62000ec462000400565b16600052600960205260206001600160a01b0360406000205416604051908152f35b346200033f5760206003193601126200033f5762000f0362000328565b6001600160a01b03908181169162000f1d831515620027e5565b62000f2b3384141562003418565b62000f8162000f516200046e336001600160a01b03166000526003602052604060002090565b8262000f7862000b006200046e876001600160a01b03166000526003602052604060002090565b9116146200348a565b62000fc5620004a762000fab6200046e856001600160a01b03166000526003602052604060002090565b936001600160a01b03166000526003602052604060002090565b62000fe3826001600160a01b03166000526005602052604060002090565b549160005b8381106200101c575b818316857f35e6fc363a4bf723d53b26c1a751674aca9c3ead425f0591f84f5540ede86f12600080a3005b846200106162000b006200104e8462001048876001600160a01b03166000526005602052604060002090565b62002a4b565b90546001600160a01b039160031b1c1690565b1462001078576200107290620030c5565b62000fe8565b620010da620010bb6200104e849596620010b4620010ad620010fa976001600160a01b03166000526005602052604060002090565b91620034d6565b9062002a4b565b9162001048856001600160a01b03166000526005602052604060002090565b90919082549060031b916001600160a01b03809116831b921b1916179055565b620011226200111c826001600160a01b03166000526005602052604060002090565b620034fc565b81903862000ff1565b801515036200033f57565b6004359062001145826200112b565b565b346200033f5760e06003193601126200033f5760043562001168816200112b565b620011726200035b565b67ffffffffffffffff91906084358381116200033f576200119890369060040162000791565b60a4358481116200033f57620011b390369060040162000791565b9160c4359485116200033f57620011d3620011e295369060040162000791565b936044359060243590620040ed565b005b346200033f5760406003193601126200033f576200120162000328565b6024356200120f816200112b565b60008092338252601060205262001232600160ff60408520541615151462003f7c565b8215159260018414620012a6575b906200127e6001600160a01b03926200126c836001600160a01b0316600052600f602052604060002090565b9060ff60ff1983541691151516179055565b167f77b360cfa209016bdd91c2800cd667bb8ad1b916258568b44a73da1cfe9a44cc8280a480f35b908092503b15620012ba5790839162001240565b608460405162461bcd60e51b815260206004820152602660248201527f5065726d697373696f6e733a2041646472657373206973206e6f74206120636f60448201527f6e747261637400000000000000000000000000000000000000000000000000006064820152fd5b346200033f5760206003193601126200033f5760206001600160a01b03806200134c62000328565b166000526007825260406000205416604051908152f35b6020908160408183019282815285518094520193019160005b8281106200138b575050505090565b835163ffffffff16855293810193928101926001016200137c565b346200033f5760006003193601126200033f5760408051600c548082529160208201600c600052927fdf6966c971051c3d54ec59162606531493a51404a002842f56009d7e5cf4a8c7906000915b8160078401106200153657946200145d928592620008d69754918181106200151e575b81811062001503575b818110620014e9575b818110620014cd575b818110620014b1575b81811062001495575b81811062001479575b1062001468575b5003836200076d565b519182918262001363565b60e01c81526020905b013862001454565b60c083901c63ffffffff1684529260019060200193016200144d565b60a083901c63ffffffff16845292600190602001930162001444565b608083901c63ffffffff1684529260019060200193016200143b565b606083901c63ffffffff16845292600190602001930162001432565b82871c63ffffffff16845292600190602001930162001429565b602083811c63ffffffff168552909360019101930162001420565b63ffffffff8316845292600190602001930162001417565b946001610100600892620015ee8954620015e363ffffffff620015608582851663ffffffff169052565b6200157860208285828901921c1663ffffffff169052565b63ffffffff838c1c821616858c01526200159f60608285828901921c1663ffffffff169052565b620015b760808285828901921c1663ffffffff169052565b620015cf60a08285828901921c1663ffffffff169052565b60c09083828701921c1663ffffffff169052565b60e090811c90830152565b019601920191620013f4565b346200033f576101006003193601126200033f576200161862001136565b6200162262000372565b67ffffffffffffffff919060a4358381116200033f576200164890369060040162000791565b60c4358481116200033f576200166390369060040162000791565b9160e4359485116200033f5762001683620011e295369060040162000791565b9360643590604435906024359062004294565b346200033f5760006003193601126200033f5760206001600160a01b03600e5416604051908152f35b346200033f576000806003193601126200172a57620016dd6200278c565b806001600160a01b03815473ffffffffffffffffffffffffffffffffffffffff1981168355167f8be0079c531659141344cd1fd0a4f28419497f9722a3daafe3b4186f6b6457e08280a380f35b80fd5b6020908160408183019282815285518094520193019160005b82811062001755575050505090565b835167ffffffffffffffff168552938101939281019260010162001746565b346200033f5760006003193601126200033f5760408051600b548082529160208201600b600052927f0175b7a638427703f0dbe7bb9bbf987a2551717b34e79f33b5b1008d1fa01db9906000915b81600384011062001879579462001806928592620008d69754918181106200185d575b8181106200183f575b8181106200181f575b1062001811575003836200076d565b51918291826200172d565b60c01c815260209062001471565b608083901c67ffffffffffffffff168452926001906020019301620017f7565b82871c67ffffffffffffffff168452926001906020019301620017ee565b67ffffffffffffffff83168452926001906020019301620017e5565b946001600491875490620018da67ffffffffffffffff92620018a68385831667ffffffffffffffff169052565b67ffffffffffffffff818a1c851616602084015267ffffffffffffffff608082811c90951616838a015260c01c6060830152565b019601920191620017c2565b346200033f5760006003193601126200033f5760206001600160a01b0360005416604051908152f35b346200033f57620019203662000d38565b6200192a6200278c565b63ffffffff8116906200193f82151562003669565b600c5491680100000000000000008310156200074a576200198f60209262000e6e8560017fc213c7678a4753d92d7378e13882379e848a6af790e9693f52b9a9db4d1dfcf19701600c55620036db565b604051908152a1005b346200033f5760606003193601126200033f57620019b562000400565b620019bf62000344565b620019c962000389565b91620019d46200278c565b6001600160a01b03620019eb8184161515620027e5565b67ffffffffffffffff821660005260096020526040600020541662001ae9576200053a7fc0684310c12bace99fe1489eb413a6774d2a7b409bc0b3860c2c41e515c4a5539362001a6262001a5b62000b006200046e8667ffffffffffffffff16600052600a602052604060002090565b1562003532565b62001a868462000b728567ffffffffffffffff166000526009602052604060002090565b62001aaa8162000b728567ffffffffffffffff16600052600a602052604060002090565b62001ab583620035bf565b6040519384938491604091949367ffffffffffffffff60608501961684526001600160a01b03809216602085015216910152565b606460405162461bcd60e51b815260206004820152601660248201527f726563656976657220616c7265616479206164646564000000000000000000006044820152fd5b346200033f5760206003193601126200033f5762001b4a62000328565b62001b546200278c565b6001600160a01b03811662001b6b811515620027e5565b600091818352600160205260ff6040842054161562001bd75762001ba662001bb0916001600160a01b03166000526001602052604060002090565b60ff198154169055565b7fd1fd5274f793d20291c0abfe42e1ef63213a11b34996d485f7afb8fe014248518280a280f35b606460405162461bcd60e51b815260206004820152600d60248201527f6e6f74206120666163746f7279000000000000000000000000000000000000006044820152fd5b346200033f5760606003193601126200033f5762001c3862000328565b6044359067ffffffffffffffff82116200033f5762001c60620008d692369060040162000791565b9033600052600f602052600160ff60406000205416151514801562001e67575b62001c8b9062002831565b6001600160a01b039182821662001ca4811515620027e5565b62001cbc604051602081018162000a588683620028ee565b62001cd362000ad062000acc620009e98562002950565b62001d0462001cfd62000b006200046e866001600160a01b03166000526003602052604060002090565b15620029c4565b62001d31837f000000000000000000000000000000000000000000000000000000000000000084620037bb565b9362001d4162000b428462002950565b62001d648562000b72866001600160a01b03166000526003602052604060002090565b62001d878462000b72876001600160a01b03166000526004602052604060002090565b62001db08462001daa876001600160a01b03166000526005602052604060002090565b62002a6a565b8416907f8e0c709111388f5480579514d86663489ab1f206fe6da1a0c4d03ac8c318b3c6600080a362001dfa62000b42846001600160a01b03166000526011602052604060002090565b62001e0e62001e0862002a96565b62002b0c565b600162001e1d60085460ff1690565b15151462001e42575b50506040516001600160a01b0390911681529081906020820190565b62001e5f9162001e5562001e0862002ad1565b6024359062003b1b565b388062001e26565b50601060205260406000205460ff16151560011462001c80565b346200033f5760206003193601126200033f5762001e9e62000328565b62001ea86200278c565b6001600160a01b03811662001ebf811515620027e5565b600091818352600160205260ff60408420541662001f205762000b4262001ef9916001600160a01b03166000526001602052604060002090565b7f45eb8ac5344d2d3f306550fe6e969ca4190526313c512afed851d052bf2ab2fd8280a280f35b606460405162461bcd60e51b815260206004820152601160248201527f616c7265616479206120666163746f72790000000000000000000000000000006044820152fd5b346200033f5760206003193601126200033f5767ffffffffffffffff62001f8a62000400565b16600052600a60205260206001600160a01b0360406000205416604051908152f35b60031960809101126200033f5760043562001fc7816200112b565b90602435906044359060643590565b346200033f5762001fe73662001fac565b9062002019600162002010620009e9336001600160a01b03166000526011602052604060002090565b15151462003fed565b604051926320c286c360e11b938481526020958682806200204260048201906001602083019252565b03816000335af180156200210a576200206b9260009162002110575b5015159015151462004039565b7f6c3e6a5419180ece4a65de295843c99b08bcab9c7272b2a262c6fd40c923648a620020b2620008bc6200046e336001600160a01b03166000526004602052604060002090565b0390a4604051908152600060048201528181806024810103816000335af180156200210a57620020de57005b81620011e292903d1062002102575b620020f981836200076d565b81019062003162565b503d620020ed565b6200317a565b6200212b9150883d8a116200210257620020f981836200076d565b386200205e565b346200033f5760406003193601126200033f576200214f62000328565b6024356200215d816200112b565b60016001600160a01b036000933385526010602052620021888360ff60408820541615151462003f7c565b16918284526010602052620021ad81604086209060ff60ff1983541691151516179055565b1515917f77b360cfa209016bdd91c2800cd667bb8ad1b916258568b44a73da1cfe9a44cc8480a480f35b346200033f5760206003193601126200033f57620021f462000328565b6001600160a01b03808216916200220d831515620027e5565b6200223f6200223762000b006200046e336001600160a01b03166000526003602052604060002090565b15156200329c565b620022706200226962000b006200046e846001600160a01b03166000526003602052604060002090565b156200330e565b620022a16200229a62000b006200046e846001600160a01b03166000526006602052604060002090565b156200335a565b62002335620022c76200046e336001600160a01b03166000526003602052604060002090565b91620022f46065620022ec856001600160a01b03166000526005602052604060002090565b5410620033a6565b620023178362000b72836001600160a01b03166000526003602052604060002090565b62001daa836001600160a01b03166000526005602052604060002090565b16907f8e0c709111388f5480579514d86663489ab1f206fe6da1a0c4d03ac8c318b3c6600080a3005b346200033f5760206003193601126200033f576001600160a01b036200238362000328565b6200238d6200278c565b166200239b811515620027e5565b73ffffffffffffffffffffffffffffffffffffffff19600d541617600d55600080f35b346200033f576000806003193601126200172a57600b54620023e081620007ed565b90604092620023f2845193846200076d565b818352601f196200240383620007ed565b016020903682860137815b8381106200242557855180620008d6878262000c61565b8067ffffffffffffffff6200243e62002485936200357e565b90549060031b1c168452600983526200247f620024658886206001600160a01b0390541690565b620024718389620030db565b906001600160a01b03169052565b620030c5565b6200240e565b346200033f5760606003193601126200033f57620024a862000328565b620024b262000344565b5060443567ffffffffffffffff81116200033f57620024d6903690600401620008ea565b50506001600160a01b0380911660005260036020526040600020541615620025045760405160018152602090f35b606460405162461bcd60e51b815260206004820152601760248201527f6964656e7469747920646f65736e2774206578697374730000000000000000006044820152fd5b346200033f5760206003193601126200033f576200256562000328565b6200256f6200278c565b6001600160a01b038091168015620025ca5760009182548273ffffffffffffffffffffffffffffffffffffffff198216178455167f8be0079c531659141344cd1fd0a4f28419497f9722a3daafe3b4186f6b6457e08380a380f35b608460405162461bcd60e51b815260206004820152602660248201527f4f776e61626c653a206e6577206f776e657220697320746865207a65726f206160448201527f64647265737300000000000000000000000000000000000000000000000000006064820152fd5b346200033f5760206003193601126200033f576001600160a01b036200265962000328565b166000526010602052602060ff604060002054166040519015158152f35b346200033f5760206003193601126200033f576001600160a01b036200269c62000328565b16600052600f602052602060ff604060002054166040519015158152f35b346200033f57620026cb3662001fac565b90620026f4600162002010620009e9336001600160a01b03166000526011602052604060002090565b604051926320c286c360e11b938481526020958682806200271d60048201906001602083019252565b03816000335af180156200210a57620027459260009162002110575015159015151462004039565b7fc1a817229c15999766e602bca79965ec75780caeb4c58b34fc0b29b332ab2d89620020b2620008bc6200046e336001600160a01b03166000526004602052604060002090565b6001600160a01b03600054163303620027a157565b606460405162461bcd60e51b815260206004820152602060248201527f4f776e61626c653a2063616c6c6572206973206e6f7420746865206f776e65726044820152fd5b15620027ed57565b606460405162461bcd60e51b815260206004820152601f60248201527f696e76616c696420617267756d656e74202d207a65726f2061646472657373006044820152fd5b156200283957565b608460405162461bcd60e51b8152602060048201526024808201527f5065726d697373696f6e733a2053656e646572206973206e6f74206120616c6c60448201527f6f776564000000000000000000000000000000000000000000000000000000006064820152fd5b60005b838110620028b65750506000910152565b8181015183820152602001620028a5565b90601f19601f602093620028e781518092818752878088019101620028a2565b0116010190565b90602062002901928181520190620028c7565b90565b156200290c57565b606460405162461bcd60e51b815260206004820152601f60248201527f696e76616c696420617267756d656e74202d20656d70747920737472696e67006044820152fd5b60206200296b918160405193828580945193849201620028a2565b8101600281520301902090565b156200298057565b606460405162461bcd60e51b815260206004820152601260248201527f73616c7420616c72656164792074616b656e00000000000000000000000000006044820152fd5b15620029cc57565b608460405162461bcd60e51b8152602060048201526024808201527f77616c6c657420616c7265616479206c696e6b656420746f20616e206964656e60448201527f74697479000000000000000000000000000000000000000000000000000000006064820152fd5b634e487b7160e01b600052603260045260246000fd5b805482101562002a645760005260206000200190600090565b62002a35565b90815491680100000000000000008310156200074a5782620010da916001620011459501815562002a4b565b6040519062002aa58262000750565b601b82527f313339207265616368656420437265617465204964656e7469747900000000006020830152565b6040519062002ae08262000750565b601b82527f313432207265616368656420437265617465204964656e7469747900000000006020830152565b6000809160405162002b658162002b5660208201947f41304fac000000000000000000000000000000000000000000000000000000008652602060248401526044830190620028c7565b03601f1981018352826200076d565b51906a636f6e736f6c652e6c6f675afa50565b909192600090338252602090600f82526001946040918660ff8487205416151514801562002fcf575b62002bac9062002831565b6001600160a01b03908187169687151562002bc790620027e5565b8451938685018562002bda8d83620028ee565b0395601f1996878101825262002bf190826200076d565b5190208651888101908062002c128360409060208152600060208201520190565b03888101825262002c2490826200076d565b519020141562002c349062002904565b8262002c408c62002fe5565b9b62002c4c8d62002950565b5460ff161562002c5c9062002978565b62002c7a846001600160a01b03166000526003602052604060002090565b5462002c90906001600160a01b031615620029c4565b8151151562002c9f906200303d565b62002ccc307f00000000000000000000000000000000000000000000000000000000000000008f620037bb565b9c62002cd89062002950565b805460ff191660011790558c62002d02856001600160a01b03166000526003602052604060002090565b9062002d3091906001600160a01b031673ffffffffffffffffffffffffffffffffffffffff19825416179055565b838d8162002d51826001600160a01b03166000526004602052604060002090565b9062002d7f91906001600160a01b031673ffffffffffffffffffffffffffffffffffffffff19825416179055565b62002d9d906001600160a01b03166000526005602052604060002090565b9062002da99162002a6a565b62002dc78d6001600160a01b03166000526011602052604060002090565b805460ff191660011790556008548c9060ff1615151462002fba575b505050889287908b16995b62002ec1575b505083513081870190815262002e61979695869590945090925062002e1e90826020850162000a96565b5190209051809581927f53d413c5000000000000000000000000000000000000000000000000000000008352600483016020600191939293604081019481520152565b038185895af19283156200210a577f8e0c709111388f5480579514d86663489ab1f206fe6da1a0c4d03ac8c318b3c69362002e9e575b505080a390565b8162002eb892903d106200210257620020f981836200076d565b50388062002e97565b825181101562002fb4578062002f1262002edd8a9386620030db565b5188516001600160a01b0386168b82019081529062002f078160208401038b81018352826200076d565b5190201415620030f0565b8762002f6d8c62002f248488620030db565b518a519586809481937f1d381240000000000000000000000000000000000000000000000000000000008352600483016040600191939293606081019481528260208201520152565b03925af19182156200210a5762002f8b9262002f92575b50620030c5565b8362002dee565b62002fac90893d8b116200210257620020f981836200076d565b503862002f84565b62002df4565b62002fc6928462003d7c565b38828162002de3565b50601084528285205460ff161515871462002ba1565b9062001145602360405180947f4f4944000000000000000000000000000000000000000000000000000000000060208301526200302c8151809260208686019101620028a2565b81010360038101855201836200076d565b156200304557565b608460405162461bcd60e51b815260206004820152602560248201527f696e76616c696420617267756d656e74202d20656d707479206c697374206f6660448201527f206b6579730000000000000000000000000000000000000000000000000000006064820152fd5b634e487b7160e01b600052601160045260246000fd5b6000198114620030d55760010190565b620030af565b805182101562002a645760209160051b010190565b15620030f857565b608460405162461bcd60e51b815260206004820152603b60248201527f696e76616c696420617267756d656e74202d2077616c6c657420697320616c7360448201527f6f206c697374656420696e206d616e6167656d656e74206b65797300000000006064820152fd5b908160209103126200033f575162002901816200112b565b6040513d6000823e3d90fd5b156200318e57565b606460405162461bcd60e51b815260206004820152601e60248201527f6f6e6c7920466163746f7279206f72206f776e65722063616e2063616c6c00006044820152fd5b9062001145602560405180947f546f6b656e0000000000000000000000000000000000000000000000000000006020830152620032198151809260208686019101620028a2565b81010360058101855201836200076d565b156200323257565b608460405162461bcd60e51b815260206004820152602360248201527f746f6b656e20616c7265616479206c696e6b656420746f20616e206964656e7460448201527f69747900000000000000000000000000000000000000000000000000000000006064820152fd5b15620032a457565b608460405162461bcd60e51b815260206004820152602960248201527f77616c6c6574206e6f74206c696e6b656420746f20616e206964656e7469747960448201527f20636f6e747261637400000000000000000000000000000000000000000000006064820152fd5b156200331657565b606460405162461bcd60e51b815260206004820152601960248201527f6e65772077616c6c657420616c7265616479206c696e6b6564000000000000006044820152fd5b156200336257565b606460405162461bcd60e51b815260206004820152602060248201527f696e76616c696420617267756d656e74202d20746f6b656e20616464726573736044820152fd5b15620033ae57565b608460405162461bcd60e51b815260206004820152602560248201527f6d617820616d6f756e74206f662077616c6c657473207065722049442065786360448201527f65656465640000000000000000000000000000000000000000000000000000006064820152fd5b156200342057565b608460405162461bcd60e51b815260206004820152602260248201527f63616e6e6f742062652063616c6c6564206f6e2073656e64657220616464726560448201527f73730000000000000000000000000000000000000000000000000000000000006064820152fd5b156200349257565b606460405162461bcd60e51b815260206004820152601f60248201527f6f6e6c792061206c696e6b65642077616c6c65742063616e20756e6c696e6b006044820152fd5b906000198201918211620030d557565b634e487b7160e01b600052603160045260246000fd5b805480156200352c57600019019062003516828262002a4b565b6001600160a01b0382549160031b1b1916905555565b620034e6565b156200353a57565b606460405162461bcd60e51b815260206004820152601560248201527f6761746577617920616c726561647920616464656400000000000000000000006044820152fd5b90600b5482101562002a6457600b60005260188260021c7f0175b7a638427703f0dbe7bb9bbf987a2551717b34e79f33b5b1008d1fa01db9019260031b1690565b600b5490680100000000000000008210156200074a57620005ce826001620011459401600b556200357e565b15620035f357565b606460405162461bcd60e51b815260206004820152601260248201527f7265636569766572206e6f7420616464656400000000000000000000000000006044820152fd5b600b5480156200352c576000190162003650816200357e565b67ffffffffffffffff82549160031b1b19169055600b55565b156200367157565b608460405162461bcd60e51b815260206004820152602960248201527f696e76616c696420617267756d656e74202d205f6473744569642063616e6e6f60448201527f74206265207a65726f00000000000000000000000000000000000000000000006064820152fd5b90600c5482101562002a6457600c600052601c8260031c7fdf6966c971051c3d54ec59162606531493a51404a002842f56009d7e5cf4a8c7019260021b1690565b600c5480156200352c5760001981019081101562002a6457600c6000528060031c7fdf6966c971051c3d54ec59162606531493a51404a002842f56009d7e5cf4a8c701805463ffffffff60e08460051b161b19169055600c55565b6001600160a01b03908116600081815260066020526040902054821615620037ab5760005260066020526040600020541690565b5060036020526040600020541690565b610510604051620037d060208301826200076d565b81815260208101916200439c83396040519360208501956001600160a01b03809216875216604085015230606085015260608452608084019380851067ffffffffffffffff8611176200074a5762002901956200386293620038406020948860405251809260a0860190620028a2565b8201620038558351809360a0840190620028a2565b010380855201836200076d565b6040516200389060208281620038828183019687815193849201620028a2565b81010380845201826200076d565b519020908051906020016000f5803b156200033f576001600160a01b0381167ff40fcec21964ffb566044d083b4073f29f7f7929110ea19e1b3ebe375d89055e600080a290565b6060519081815260208091019160809160005b828110620038f9575050505090565b835185529381019392810192600101620038ea565b90815180825260208080930193019160005b8281106200392f575050505090565b83518552938101939281019260010162003920565b9362002901959267ffffffffffffffff6200398d95931686526001600160a01b039283809216602088015216604086015216606084015260c0608084015260c0830190620028c7565b9060a0818303910152620038d7565b94919362002901969467ffffffffffffffff620039e795931687526001600160a01b039283809216602089015216604087015216606085015260c0608085015260c0840190620028c7565b9160a08184039101526200390e565b6040519062003a058262000750565b601b82527f343539207265616368656420437265617465204964656e7469747900000000006020830152565b6040519062003a408262000750565b601b82527f343832207265616368656420437265617465204964656e7469747900000000006020830152565b9192620029019363ffffffff62003a97931684526020840152608060408401526080830190620028c7565b906060818303910152620038d7565b9262002901949263ffffffff62003ad1931685526020850152608060408501526080840190620028c7565b9160608184039101526200390e565b6040519062003aef8262000750565b601b82527f343930207265616368656420437265617465204964656e7469747900000000006020830152565b929162003b3862000b0062000b00600d546001600160a01b031690565b9262003b5462000b0062000b00600e546001600160a01b031690565b6001600160a01b03948516939060005b600b5481101562003c6c5762003b7e62000550826200357e565b9062003bb06200046e62003b9662000550846200357e565b67ffffffffffffffff166000526009602052604060002090565b9162003be26200046e62003bc862000550856200357e565b67ffffffffffffffff16600052600a602052604060002090565b92883b156200033f5760009162003c29898d60405197889586957ff75b0ec30000000000000000000000000000000000000000000000000000000087526004870162003944565b0381838b5af19182156200210a5762003c489262003c4e5750620030c5565b62003b64565b8062003c5e62003c659262000735565b8062000645565b3862002f84565b5093509390945062003c8162001e08620039f6565b7f3078303000000000000000000000000000000000000000000000000000000000840362003cb0575b50505050565b60009493949216915b600c5481101562003d6d5762003cd262001e0862003a31565b62003ce162000e5782620036db565b90833b156200033f57600086849362003d2860405195869384937f04a592bc0000000000000000000000000000000000000000000000000000000085526004850162003a6c565b038183885af19182156200210a5762003d509262003d56575b506200247f62001e0862003ae0565b62003cb9565b8062003c5e62003d669262000735565b3862003d41565b50505090503880808062003caa565b93929062003d9a62000b0062000b00600d546001600160a01b031690565b9362003db662000b0062000b00600e546001600160a01b031690565b6001600160a01b039586169260005b600b5481101562003e7c5762003ddf62000550826200357e565b9062003df76200046e62003b9662000550846200357e565b9162003e0f6200046e62003bc862000550856200357e565b92873b156200033f5760009162003e578a8c8f60405198899687967ff75b0ec3000000000000000000000000000000000000000000000000000000008852600488016200399c565b0381838a5af19182156200210a5762003e769262003c4e5750620030c5565b62003dc5565b50939591965093915062003e9362001e08620039f6565b7f3078303000000000000000000000000000000000000000000000000000000000830362003ec3575b5050505050565b939493919290911660005b600c5481101562003f6b5762003ee762001e0862003a31565b62003ef662000e5782620036db565b90823b156200033f57600085859362003f3e8a60405196879485947f04a592bc0000000000000000000000000000000000000000000000000000000086526004860162003aa6565b038183875af19182156200210a5762003f659262003d5657506200247f62001e0862003ae0565b62003ece565b505050509050388080808062003ebc565b1562003f8457565b608460405162461bcd60e51b8152602060048201526024808201527f5065726d697373696f6e733a2053656e646572206973206e6f742061204d616e60448201527f61676572000000000000000000000000000000000000000000000000000000006064820152fd5b1562003ff557565b606460405162461bcd60e51b815260206004820152601060248201527f496e76616c6964204964656e74697479000000000000000000000000000000006044820152fd5b156200404157565b608460405162461bcd60e51b815260206004820152602360248201527f5065726d697373696f6e733a204f6e6c79204964656e746974792063616e204360448201527f616c6c00000000000000000000000000000000000000000000000000000000006064820152fd5b92620040cf620029019593620040de938652608060208701526080860190620028c7565b908482036040860152620028c7565b916060818403910152620028c7565b9391939290926200411b600162002010620009e9336001600160a01b03166000526011602052604060002090565b604051916320c286c360e11b968784526020988985806200414460048201906001602083019252565b03816000335af19182156200210a576200419f6001600160a01b0395620041d5947f6ecc8862e587399c270764c32a5b20be85d8217ea399faa49aa04803f2e645d5988e60009262004220575b505015159015151462004039565b620041c562000b006200046e336001600160a01b03166000526004602052604060002090565b96604051958695169985620040ab565b0390a4604051908152600060048201528181806024810103816000335af180156200210a5762004203575050565b816200421d92903d106200210257620020f981836200076d565b50565b6200423a9250803d106200210257620020f981836200076d565b388e62004191565b939062002901959362004285936001600160a01b036200427693168752602087015260a0604087015260a0860190620028c7565b908482036060860152620028c7565b916080818403910152620028c7565b9092949193969596620042c4600162002010620009e9336001600160a01b03166000526011602052604060002090565b604051926320c286c360e11b978885526020998a8680620042ed60048201906001602083019252565b03816000335af19283156200210a57620043476001600160a01b0396620041d5957f4a4d2944838c03f4f55259ccea3b43da71c7ae20941cbf3981d737d0df2636b9998f6000926200437957505015159015151462004039565b620043696200046e336001600160a01b03166000526004602052604060002090565b99604051968796169a8662004242565b620043939250803d106200210257620020f981836200076d565b388f6200419156fe6080604090808252346101e657606081610510803803809161002182856101eb565b8339810103126101e6576100348161020e565b602091600461004f8561004886850161020e565b930161020e565b916001600160a01b0390859085831690839061006c831515610222565b1695610079871515610222565b7f821f3e4d3d679f19eacc940c87acf846ea6eae24a63058ea750304437a62aafc55875163557887a160e11b815293849182905afa9182156101db576000926101a1575b508551928584019463485cc95560e01b8652602485015216604483015260448252608082019060018060401b039383831085841117610185576000938493885251915af4903d1561019b573d90811161018557835190610126601f8201601f19168501836101eb565b81526000833d92013e5b156101435750516102a1908161026f8239f35b606491519062461bcd60e51b82526004820152601660248201527f496e697469616c697a6174696f6e206661696c65642e000000000000000000006044820152fd5b634e487b7160e01b600052604160045260246000fd5b50610130565b90918582813d83116101d4575b6101b881836101eb565b810103126101d157506101ca9061020e565b90386100bd565b80fd5b503d6101ae565b86513d6000823e3d90fd5b600080fd5b601f909101601f19168101906001600160401b0382119082101761018557604052565b51906001600160a01b03821682036101e657565b1561022957565b60405162461bcd60e51b815260206004820152601f60248201527f696e76616c696420617267756d656e74202d207a65726f2061646472657373006044820152606490fdfe6080806040526004361015610113575b60208160048161006973ffffffffffffffffffffffffffffffffffffffff7f821f3e4d3d679f19eacc940c87acf846ea6eae24a63058ea750304437a62aafc541673ffffffffffffffffffffffffffffffffffffffff1690565b7faaf10f420000000000000000000000000000000000000000000000000000000082525afa90811561010e57600091829182916100e1575b50368280378136917fffffffffffffffffffffffffffffffffffffffffffffffffffffffffffffd8f05a01f43d90816000803e156100dd576000f35b6000fd5b61010091506020903d8211610106575b6100fa8261019c565b0161020d565b386100a1565b3d91506100f1565b61025f565b6000803560e01c632307f8821461012a575061000f565b903461019857817ffffffffffffffffffffffffffffffffffffffffffffffffffffffffffffffffc3601126101985760209073ffffffffffffffffffffffffffffffffffffffff7f821f3e4d3d679f19eacc940c87acf846ea6eae24a63058ea750304437a62aafc54168152f35b5080fd5b601f7fffffffffffffffffffffffffffffffffffffffffffffffffffffffffffffffe09101166080016080811067ffffffffffffffff8211176101de57604052565b7f4e487b7100000000000000000000000000000000000000000000000000000000600052604160045260246000fd5b7fffffffffffffffffffffffffffffffffffffffffffffffffffffffffffffff80602091011261025a5760805173ffffffffffffffffffffffffffffffffffffffff8116810361025a5790565b600080fd5b6040513d6000823e3d90fdfea26469706673582212203d0e53ba3fd4f14a8d4e8bf8374f0a16f9096794d701cddbfcfcb1fe522486e264736f6c63430008140033a26469706673582212201970637f495ba09397a186f5ca895d2fde34b6508719d0d829dacb5c8bd051ac64736f6c63430008140033",
  "devdoc": {
    "kind": "dev",
    "methods": {
      "addCCIPReceiver(uint64,address,address)": {
        "details": "See {IdFactory-addCCIPReceiver}."
      },
      "addLzReceiver(uint32)": {
        "details": "See {IdFactory-addLzReceiver}."
      },
      "addTokenFactory(address)": {
        "details": "See {IdFactory-addTokenFactory}."
      },
      "createIdentity(address,bytes32,string)": {
        "details": "See {IdFactory-createIdentity}."
      },
      "createIdentityWithManagementKeys(address,bytes32,string,bytes32[])": {
        "details": "See {IdFactory-createIdentityWithManagementKeys}."
      },
      "createTokenIdentity(address,address,string)": {
        "details": "See {IdFactory-createTokenIdentity}."
      },
      "getCCIPBridge()": {
        "details": "get bridge address"
      },
      "getChainSelectors()": {
        "details": "See {IdFactory-getChainSelectors}."
      },
      "getDstEid()": {
        "details": "See {IdFactory-getDstEid}."
      },
      "getIdentity(address)": {
        "details": "See {IdFactory-getIdentity}."
      },
      "getLzBridge()": {
        "details": "get bridge address"
      },
      "getReceiver(uint64)": {
        "details": "See {IdFactory-getReceiver}."
      },
      "getReceivers()": {
        "details": "See {IdFactory-getReceivers}."
      },
      "getToken(address)": {
        "details": "See {IdFactory-getToken}."
      },
      "getWallets(address)": {
        "details": "See {IdFactory-getWallets}."
      },
      "hasAccess(address,address,bytes)": {
        "params": {
          "account": "The account to be checked.",
          "caller": "The account calling the function requiring an access check.",
          "data": "The data associated with the function call"
        },
        "returns": {
          "_0": "true if the account is allowed to access the system (false otherwise)."
        }
      },
      "implementationAuthority()": {
        "details": "See {IdFactory-implementationAuthority}."
      },
      "isSaltTaken(string)": {
        "details": "See {IdFactory-isSaltTaken}."
      },
      "isTokenFactory(address)": {
        "details": "See {IdFactory-isTokenFactory}."
      },
      "linkWallet(address)": {
        "details": "See {IdFactory-linkWallet}."
      },
      "owner()": {
        "details": "Returns the address of the current owner."
      },
      "removeCCIPReceiver(uint64)": {
        "details": "See {IdFactory-removeReceiver}."
      },
      "removeLzReceiver(uint32)": {
        "details": "See {IdFactory-removeLzReceiver}."
      },
      "removeTokenFactory(address)": {
        "details": "See {IdFactory-removeTokenFactory}."
      },
      "renounceOwnership()": {
        "details": "Leaves the contract without owner. It will not be possible to call `onlyOwner` functions. Can only be called by the current owner. NOTE: Renouncing ownership will leave the contract without an owner, thereby disabling any functionality that is only available to the owner."
      },
      "setCCIPBridge(address)": {
        "params": {
          "_bridge": "the address of the CCIP bridge contract"
        }
      },
      "setLzBridge(address)": {
        "params": {
          "_lzBridge": "the address of the LZ bridge contract"
        }
      },
      "transferOwnership(address)": {
        "details": "Transfers ownership of the contract to a new account (`newOwner`). Can only be called by the current owner."
      },
      "unlinkWallet(address)": {
        "details": "See {IdFactory-unlinkWallet}."
      }
    },
    "version": 1
  },
  "userdoc": {
    "events": {
      "AddedKey(address,bytes32,uint256,uint256)": {
        "notice": "events"
      }
    },
    "kind": "user",
    "methods": {
      "hasAccess(address,address,bytes)": {
        "notice": "This function is used to check if the account has necessary permissions to access the system."
      }
    },
    "version": 1
  },
  "storageLayout": {
    "storage": [
      {
        "astId": 2995,
        "contract": "src/factory/IdFactory.sol:IdFactory",
        "label": "_owner",
        "offset": 0,
        "slot": "0",
        "type": "t_address"
      },
      {
        "astId": 19738,
        "contract": "src/factory/IdFactory.sol:IdFactory",
        "label": "_tokenFactories",
        "offset": 0,
        "slot": "1",
        "type": "t_mapping(t_address,t_bool)"
      },
      {
        "astId": 19744,
        "contract": "src/factory/IdFactory.sol:IdFactory",
        "label": "_saltTaken",
        "offset": 0,
        "slot": "2",
        "type": "t_mapping(t_string_memory_ptr,t_bool)"
      },
      {
        "astId": 19748,
        "contract": "src/factory/IdFactory.sol:IdFactory",
        "label": "_userIdentity",
        "offset": 0,
        "slot": "3",
        "type": "t_mapping(t_address,t_address)"
      },
      {
        "astId": 19752,
        "contract": "src/factory/IdFactory.sol:IdFactory",
        "label": "_identityWallet",
        "offset": 0,
        "slot": "4",
        "type": "t_mapping(t_address,t_address)"
      },
      {
        "astId": 19757,
        "contract": "src/factory/IdFactory.sol:IdFactory",
        "label": "_wallets",
        "offset": 0,
        "slot": "5",
        "type": "t_mapping(t_address,t_array(t_address)dyn_storage)"
      },
      {
        "astId": 19761,
        "contract": "src/factory/IdFactory.sol:IdFactory",
        "label": "_tokenIdentity",
        "offset": 0,
        "slot": "6",
        "type": "t_mapping(t_address,t_address)"
      },
      {
        "astId": 19765,
        "contract": "src/factory/IdFactory.sol:IdFactory",
        "label": "_tokenAddress",
        "offset": 0,
        "slot": "7",
        "type": "t_mapping(t_address,t_address)"
      },
      {
        "astId": 19767,
        "contract": "src/factory/IdFactory.sol:IdFactory",
        "label": "_isHomeChain",
        "offset": 0,
        "slot": "8",
        "type": "t_bool"
      },
      {
        "astId": 19771,
        "contract": "src/factory/IdFactory.sol:IdFactory",
        "label": "destinationChainSelectorToReceiver",
        "offset": 0,
        "slot": "9",
        "type": "t_mapping(t_uint64,t_address)"
      },
      {
        "astId": 19775,
        "contract": "src/factory/IdFactory.sol:IdFactory",
        "label": "destinationChainSelectorToGateway",
        "offset": 0,
        "slot": "10",
        "type": "t_mapping(t_uint64,t_address)"
      },
      {
        "astId": 19778,
        "contract": "src/factory/IdFactory.sol:IdFactory",
        "label": "chainSelectors",
        "offset": 0,
        "slot": "11",
        "type": "t_array(t_uint64)dyn_storage"
      },
      {
        "astId": 19781,
        "contract": "src/factory/IdFactory.sol:IdFactory",
        "label": "dstEids",
        "offset": 0,
        "slot": "12",
        "type": "t_array(t_uint32)dyn_storage"
      },
      {
        "astId": 19783,
        "contract": "src/factory/IdFactory.sol:IdFactory",
        "label": "ccipBridge",
        "offset": 0,
        "slot": "13",
        "type": "t_address"
      },
      {
        "astId": 19785,
        "contract": "src/factory/IdFactory.sol:IdFactory",
        "label": "lzBridge",
        "offset": 0,
        "slot": "14",
        "type": "t_address"
      },
      {
        "astId": 19789,
        "contract": "src/factory/IdFactory.sol:IdFactory",
        "label": "isAllowedContract",
        "offset": 0,
        "slot": "15",
        "type": "t_mapping(t_address,t_bool)"
      },
      {
        "astId": 19793,
        "contract": "src/factory/IdFactory.sol:IdFactory",
        "label": "isManager",
        "offset": 0,
        "slot": "16",
        "type": "t_mapping(t_address,t_bool)"
      },
      {
        "astId": 19797,
        "contract": "src/factory/IdFactory.sol:IdFactory",
        "label": "isCreatedIdentity",
        "offset": 0,
        "slot": "17",
        "type": "t_mapping(t_address,t_bool)"
      }
    ],
    "types": {
      "t_address": {
        "encoding": "inplace",
        "label": "address",
        "numberOfBytes": "20"
      },
      "t_array(t_address)dyn_storage": {
        "base": "t_address",
        "encoding": "dynamic_array",
        "label": "address[]",
        "numberOfBytes": "32"
      },
      "t_array(t_uint32)dyn_storage": {
        "base": "t_uint32",
        "encoding": "dynamic_array",
        "label": "uint32[]",
        "numberOfBytes": "32"
      },
      "t_array(t_uint64)dyn_storage": {
        "base": "t_uint64",
        "encoding": "dynamic_array",
        "label": "uint64[]",
        "numberOfBytes": "32"
      },
      "t_bool": {
        "encoding": "inplace",
        "label": "bool",
        "numberOfBytes": "1"
      },
      "t_mapping(t_address,t_address)": {
        "encoding": "mapping",
        "key": "t_address",
        "label": "mapping(address => address)",
        "numberOfBytes": "32",
        "value": "t_address"
      },
      "t_mapping(t_address,t_array(t_address)dyn_storage)": {
        "encoding": "mapping",
        "key": "t_address",
        "label": "mapping(address => address[])",
        "numberOfBytes": "32",
        "value": "t_array(t_address)dyn_storage"
      },
      "t_mapping(t_address,t_bool)": {
        "encoding": "mapping",
        "key": "t_address",
        "label": "mapping(address => bool)",
        "numberOfBytes": "32",
        "value": "t_bool"
      },
      "t_mapping(t_string_memory_ptr,t_bool)": {
        "encoding": "mapping",
        "key": "t_string_memory_ptr",
        "label": "mapping(string => bool)",
        "numberOfBytes": "32",
        "value": "t_bool"
      },
      "t_mapping(t_uint64,t_address)": {
        "encoding": "mapping",
        "key": "t_uint64",
        "label": "mapping(uint64 => address)",
        "numberOfBytes": "32",
        "value": "t_address"
      },
      "t_string_memory_ptr": {
        "encoding": "bytes",
        "label": "string",
        "numberOfBytes": "32"
      },
      "t_uint32": {
        "encoding": "inplace",
        "label": "uint32",
        "numberOfBytes": "4"
      },
      "t_uint64": {
        "encoding": "inplace",
        "label": "uint64",
        "numberOfBytes": "8"
      }
    }
  }
}